:1000000012C021C020C01FC01EC01DC01CC01BC00C
:100010001AC019C018C017C016C015C015C013C02B
:1000200012C011C010C011241FBECFE5D4E0DEBF46
:10003000CDBF10E0A0E6B0E001C01D92A636B1072A
:10004000E1F732D0F8C1DCCF1F920F920FB60F92BA
:1000500011248F9380916300882349F485B18093A4
:10006000620087B1807F816087B981E00AC08130FA
:1000700059F485B18093600087B1807F826087B931
:1000800082E0809363000AC0823041F485B180939E
:10009000610087B1807F87B9109263008F910F90C4
:1000A0000FBE0F901F9018951F93EBD0F8D0FED085
:1000B00010E813BD80916100813F20F087E090E05F
:1000C00053D003C087E090E05BD080916200893C10
:1000D00028F086E090E048D01DD128C086E090E06E
:1000E0004FD080E090E060E070E041E050E0E2D08E
:1000F0008091640090916500892B39F081E090E057
:1001000060E070E041E050E006C081E090E060E037
:1001100070E040E050E0CED08091640090916500A6
:100120008095909590936500809364008091600025
:10013000813F20F080E090E017D0BBCF80E090E0DE
:100140001FD0B7CF87B3816C87BBC69AC79AC09AB6
:10015000089598B321E030E002C0220F331F8A9542
:10016000E2F7922798BB089598B321E030E002C0EF
:10017000220F331F8A95E2F72095292328BB089583
:1001800098B321E030E002C0220F331F8A95E2F7D6
:10019000922B98BB0895DF93CF93CDB7DEB7289706
:1001A0000FB6F894DEBF0FBECDBF1D821E821F8228
:1001B00018868D819E81AF81B8850197A105B10513
:1001C00009F4C0988D819E81AF81B8850297A10501
:1001D000B10509F4C7988D819E81AF81B8850397D9
:1001E000A105B10509F4C6988D819E81AF81B885BE
:1001F0000497A105B10509F4C09A8D819E81AF8154
:10020000B8850597A105B10509F4C79A8D819E812E
:10021000AF81B8850697A105B10509F4C69A8D810D
:100220009E81AF81B8850797A105B10521F41D8294
:100230001E821F8218868D819E81AF81B8850196AE
:10024000A11DB11D8D839E83AF83B88719821A8249
:100250001B821C820BC089819A81AB81BC81019673
:10026000A11DB11D89839A83AB83BC8389819A8147
:10027000AB81BC8180519742A040B0400CF099CF37
:10028000EACF86B1836086B93E9A3D9A87B1807F76
:1002900087B9359A379A339A7894369A089588E0D0
:1002A00087BB8AE685BD80E883BD089581B38F60F2
:1002B00081BB089561157105A9F44130510541F4E0
:1002C000009711F4919A0895019719F5929A08955B
:1002D000452BF9F4009711F4919808950197C9F40A
:1002E0009298089561307105A1F44130510541F4AF
:1002F000009711F4909A0895019759F4939A0895EC
:10030000452B39F4009711F490980895019709F45A
:100310009398089580E090E060E070E040E050E065
:10032000C9DF81E090E060E070E040E050E0C2DFD3
:1003300080E090E061E070E040E050E0BBDF81E011
:1003400090E061E070E040E050E0B4DF089580E0CC
:1003500090E060E070E041E050E0ACDF81E090E0F0
:1003600060E070E041E050E0A5DF80E090E061E017
:1003700070E040E050E09EDF81E090E061E070E0FE
:1003800040E050E097DF089580E090E060E070E0AA
:1003900040E050E08FDF81E090E060E070E040E01E
:1003A00050E088DF80E090E061E070E041E050E004
:1003B00081DF81E090E061E070E041E050E07ADFD1
:1003C000089580E090E060E070E040E050E072DF8F
:1003D00081E090E060E070E041E050E06BDF80E0C1
:1003E00090E061E070E041E050E064DF81E090E0A7
:1003F00061E070E040E050E05DDF089580E090E073
:1004000060E070E041E050E055DF81E090E060E0C6
:1004100070E040E050E04EDF80E090E061E070E0AE
:1004200040E050E047DF81E090E061E070E041E0D3
:0A04300050E040DF0895F894FFCF7C
:00000001FF
